:020000040000FA
:1000000040570020D51F00005D420000A91F0000DE
:10001000A91F0000A91F0000A91F00000000000088
:10002000000000000000000000000000751C00003F
:10003000A91F000000000000A91F0000A91F000068
:10004000F11C0000F11C0000F11C0000F11C00007C
:10005000F11C0000F11C0000F11C0000F11C00006C
:10006000F11C0000F11C0000F11C0000F11C00005C
:10007000F11C0000F11C0000F11C0000F11C00004C
:10008000F11C0000F11C0000F11C0000F11C00003C
:10009000F11C0000F11C0000F11C0000F11C00002C
:1000A000F11C0000F11C0000F11C0000F11C00001C
:1000B000F11C0000F11C0000F11C0000F11C00000C
:1000C000F11C0000F11C0000F11C0000F11C0000FC
:1000D000F11C0000F11C0000F11C000053B94AB9EA
:1000E000002908BF00281CBF4FF0FF314FF0FF3040
:1000F00000F00CB8ADF1080C6DE904CE00F008F882
:10010000DDF804E0DDE9022304B07047704700BF6A
:100110002DE9F04786468C460846089E15467446EB
:100120001946002B40F0C2808542B2FA82F245D9CE
:100130004AB1C2F1200300FA02FC2EFA03F3954003
:1001400043EA0C0C94404FEA154EA8B2BCFBFEF8F3
:10015000230C0EFB18CC08FB00F943EA0C4399452D
:1001600028D9EB1808F1FF3704D2994502D9A8F134
:1001700002072B44A3EB0903A4B2B3FBFEFC0EFB66
:100180001C330CFB00F044EA0344A04214D92C19A0
:100190000CF1FF3304D2A04202D9ACF102032C448B
:1001A000241A43EA07401EB1D44000233460736030
:1001B000BDE8F0874746DDE76346F1E792BB431BA6
:1001C00001214FEA154EAFB2B3FBFEFC200C0EFB33
:1001D0001C330CFB07F840EA0343984562D9EB183F
:1001E0000CF1FF3004D2984502D9ACF102002B4447
:1001F000A3EB0803A4B2B3FBFEFC0EFB1C330CFB09
:1002000007F744EA0344A7424ED92C190CF1FF33F7
:1002100004D2A74202D9ACF102032C44E41B43EA06
:100220000040C0E7C2F1200320FA03F1954090405E
:100230002EFA03F303434FEA154EAFB2B1FBFEFCB7
:100240000EFB1C10190C0CFB07F841EA0041884515
:1002500004FA02F422D969180CF1FF3004D288455F
:1002600002D9ACF102002944A1EB08019BB2B1FB19
:10027000FEFC0EFB1C110CFB07F743EA01439F42F7
:100280000ED9EB180CF1FF3104D29F4202D9ACF128
:1002900002012B44DB1B41EA004192E76046E3E7A1
:1002A0006146F7E76046A3E76346B7E7834206D9AE
:1002B00016B9002108467BE7C6E900E0F9E7B3FA82
:1002C00083F78FB9834201D3724508D8BEEB02048D
:1002D00060EB030301209C461EB9002168E7384605
:1002E000FAE7C6E9004CF8E7C7F1200CBB4022FA58
:1002F0000CF41C432EFA0CF120FA0CF3B840014325
:100300004FEA14490EFA07F5B3FBF9F81FFA84FE19
:1003100009FB18300B0C08FB0EFA43EA00439A4520
:1003200002FA07F240D9E31808F1FF3004D29A45E7
:1003300002D9A8F102002344A3EB0A0389B2B3FB5C
:10034000F9F809FB183308FB0EFE41EA03418E451C
:100350002CD9611808F1FF3304D28E4502D9A8F1D7
:100360000203214443EA0040A0FB0298A1EB0E01E6
:100370004145CE46434602D306D14D4504D2B9EBA2
:10038000020E68EB04030138002EA6D0B5EB0E0276
:1003900061EB030101FA0CFC22FA07F34CEA0303B8
:1003A000F940C6E9003198E74046C5E74346D9E73A
:1003B000F0B52E4B2E4AC3F800262E48C3F804266B
:1003C00085B0C3F808264921C3F80C26C3F81026C7
:1003D000C3F81426C3F81826C3F81C2603F0B8FE89
:1003E00000F078F801A800F0E7FC234B1B6883427B
:1003F00004D02248452103F0ABFEFEE7039A2048D3
:10040000492103F0A5FE1F48492103F0A1FE4FF446
:100410004041002004F098F8044620B11A484521D4
:1004200003F096FEFEE769469DF8080000F030F8FC
:10043000009B039D1D44019B1E8902F0C1FAAF1968
:1004400000F0D6FF00F0AAFF01F000FEAB5983F3E5
:10045000088884F31488BFF36F8FBFF36F8F7B68B6
:1004600098470A48452103F073FEFEE7000001406B
:100470003546526EA0620000D8000020B96200002C
:10048000DC6200000B630000306300006363000067
:1004900008B5024638B105480023452103F058FE4F
:1004A0006FF0150008BD0860FCE700BF8663000020
:1004B00021B1012906D06FF015007047044B53F8A5
:1004C00030007047024B03EBC0035868704700BF11
:1004D0002860000002484FF4C05102F005BD00BF83
:1004E000DC0D00202DE9F04FF9B0DDE98489DFF85B
:1004F000BCB1869FDBF8005038A816461C4605F0B4
:1005000087FB002138A802F003FEB8F1000F07D0E6
:10051000B9F1000F04DD4A46414638A805F07CFBDE
:1005200033897289D6F80CA013449A444FF000081E
:10053000C24544D80DA938A805F0B2FB27B1202246
:100540000DA9384603F0A8FE0023009322464FF67B
:10055000FF73314607A803F0D9FA804660BB2046F6
:100560000C9E00F0D9F9864226D8DFF844914FF06E
:10057000FF370DF1160305AA06A907A803F014FB1F
:10058000002819DB40F08A80BDF81660102E2ED1AD
:10059000BDF81460202E0FD10699334638AA2046A4
:1005A00003F0E4FD40B9324638A90DA803F048FB3A
:1005B000404B1B68834217D0DBF8005071E0839BEF
:1005C000829AAAEB0809994528BF99464B464146AD
:1005D000204603F0CBFD0028EED182994A4638A888
:1005E00005F01AFBC844A3E74FF00108C1E7012E4C
:1005F00035D1BDF81430202BDED8069938AA204614
:1006000003F0B4FD07460028D6D19DF814A0BAF136
:10061000200F02D94FF0FF37ABE7D9F80030264E54
:100620000393039B9F42F5DA1DA805F0F1FA002120
:100630001DA802F06DFD726856F8081B12681DA80F
:1006400005F0EAFA15A91DA805F02AFB524638A9BB
:1006500015A803F011FE00288BD00137E1E7202E0A
:1006600087D17B1C85D0D9F80030BB42D2DDBDF8E4
:100670001430B3F5807F9FD1069938AA204603F045
:1006800075FD002898D1FFB2BDF81430009738AA44
:1006900031460DA800F012F80546BBE7B8F1000F8F
:1006A0008AD0284679B0BDE8F08F00BF0400002052
:1006B00030600000D8000020346000002DE9F04FC9
:1006C000DFF8D4A1ADF54D7D074629A89DF858B3B4
:1006D000DAF800501E468946904605F054FA042286
:1006E000012129A802F090FC6C4B53F83B40049484
:1006F00003EBCB038CAA5B681B681C4421463023A8
:1007000004A804F067F8002840F0BE80049B8C9A8F
:1007100013449C4240F0B8802BAA214604A804F060
:100720006DF8002840F0B0800DF1B80B5A46214614
:1007300004A804F063F80390002840F0A5802BA8DB
:1007400004F052F9049A2A90944240F09D80039B51
:10075000CDF804B000931A462BA929A805F0D0F9CA
:10076000002840F0918029A802F064FC002840F0A5
:100770008B802BA804F038F92A9029A805F00DFAEF
:10078000864240F08180B6F5807FDAF800507BD158
:10079000B9F1200F78D18CAA414629A802F070FC4B
:1007A0000446002870D19DF82F33BC2B6CD10590E6
:1007B0000DF5A879DF260EA805F02AFA00210EA86B
:1007C00002F0A6FC20220DF20F310EA805F024FA4B
:1007D000042205A90EA805F01FFA06A90EA805F027
:1007E0005FFA202E9DF81730B046A8BF4FF02008C2
:1007F00001334846424606A9A6EB08068DF8173095
:1008000003F04AFD002EC144D5DC54AB8CAA184637
:1008100000219C46067812F801EB013186EA0E06AB
:10082000DF2900F8016BF5D11A7802F07F021A7007
:1008300013F8016B46BB0134BE2CF9D19CF8BE30D5
:10084000012B21D10EA805F0E3F931460EA802F0E4
:100850005FFC134908220EA805F0DEF93946202274
:100860000EA805F0D9F920220DF20F210EA805F0EF
:10087000D3F906A90EA805F013FA20220DF20F31C4
:1008800006A803F0DDF9054629A805F088F92846F1
:100890000DF54D7DBDE8F08F0400002034600000B0
:1008A000AC630000094A0B78400052F820108B42DC
:1008B00009D0013052F82000834214BF4FF0FF30BE
:1008C0004FF4C07070474FF4C07070473C60000038
:1008D0001FB50F4B13F830000C4601F0F9F850B972
:1008E0002068816810236A46103903F03FFC28B164
:1008F000206803F03AFC4FF0FF3006E00549102273
:10090000684603F0B9FC0028F2D104B010BD00BF66
:100910003C6000009062000013B5044603F097F9B4
:100920006A460146204603F0D8F830B10448452114
:1009300003F00EFC002002B010BD0098FBE700BFE2
:10094000B46300002DE9F041364B88B00646002024
:100950000D461C68FFF7ACFD06A9C0B201F0B8F85F
:10096000002858D12946FFF7A3FD2C2407A9C0B2BF
:1009700004FB056401F0ACF8002833D02C276F434A
:1009800006EB0708069BD8F8101011F0100138D1BB
:100990004FF480720192244A0092CDE9031122465D
:1009A00002910846FFF79EFD0446204BF259069837
:1009B0009A420CD1D8F80C20B8F808309B1806D20F
:1009C0008268934203D21A4B1B68A34220D035B3EE
:1009D0008268002103F0F4FB164A1748452103F012
:1009E000B7FB13E0079803F006FC0746079803F0EF
:1009F000BCFB631EE21C13F8011FB942BED1934237
:100A0000F9D11DB10699304603F00BFA0B4B1C6867
:100A1000069803F0AAFB204608B0BDE8F081084A1A
:100A2000DBE700BF04000020DC2500203DB8F39682
:100A3000D8000020F76300000164000000000020DF
:100A4000EF6300007FB50D46044600212846CDE93E
:100A5000021103F0A5F928B32368194EB34203D15C
:100A600003AA204603F031F9E36AB34204D102AA93
:100A70000121204603F029F9DDE90232934288BFC3
:100A80000393039BAB60039A2946204600F08EFB3C
:100A90000C4B1A68002A03DD0B48572103F058FB62
:100AA00004B070BD01A9FFF713FF019805F108011B
:100AB00003F0D8F8AB680198039303F056FBE2E724
:100AC0003DB8F3963C0D0020296400002DE9F84F55
:100AD000DFF870B01C4C1D4D884691469A460026A2
:100AE0000B9B9E4201D300200FE00B9B154A9F1BDE
:100AF000B7F5806F28BF4FF480673B4606EB0A01CD
:100B0000404603F033FB10B10120BDE8F88F0A998D
:100B10003B465A467118484603F03DFB0028F3D186
:100B2000C4F800563E44C4F80456C4F80856C4F845
:100B30000C56C4F81056C4F81456C4F81856C4F825
:100B40001C56CDE7DC080020000001403546526EFF
:100B5000F0B5904B43620E468F4B0365002187B082
:100B600004460846FFF7A4FC04F12001C0B200F0DF
:100B7000AFFF01210020FFF79BFC04F14C01C0B244
:100B800000F0A6FF204603F0E1F8054668B9002210
:100B90001146204603F083F8054600B37F48002243
:100BA000572103F0D5FA012390E07D488022572198
:100BB00003F0CEFA01239D4284F85830E7D194F82F
:100BC00058308DF80F30042B00F28380012B00F297
:100BD000878000F09A80FF2384F8583095E0204603
:100BE00000F0FCF90028DED002A803F0D0F801469E
:100BF000204603F06BF918B16A482A465721D0E71E
:100C000002A803F0CDF880F0010102AAC9B2204683
:100C100003F045F802460028C0D102A803F0C0F84E
:100C2000054660BB02A92046FFF70CFF9DF80F3078
:100C300084F85830033B012B06D8284600F0E2F830
:100C400010B1FF2384F858309DF80F30023B022B7F
:100C50000BD8002000F0C0F838B1FF2384F85830DA
:100C60005148452103F074FAFEE794F85830FF2B01
:100C7000F6D002AA0021204603F011F893E79DF870
:100C80000F70012F17D1104601F028FF831E022B91
:100C900005460DD839462046FFF754FE434B1B68E6
:100CA000984205D0424B1D68A84214BF0525012576
:100CB00084F8585083E701212046FFF743FE3B4B61
:100CC0001B6898420CBF9DF80F30052384F85830FC
:100CD00075E7052B7FF47FAF002000F093F811E05B
:100CE00002A92046FFF7AEFE94F85830DA1E012A1A
:100CF00014D8002000F086F800287FF46CAF0020A4
:100D000000F06AF800287FF466AF94F85830FF2BA3
:100D100007D12548452103F01BFAFEE7022BF4D149
:100D2000EDE70021012B234D019113D002AA2046AB
:100D300002F0B5FF70B12D681022002102A803F067
:100D4000B6FAE06C03F011FA206A03F00EFA2846B6
:100D500007B0F0BD00212046FFF7F4FD134F3B68BC
:100D60009842E8D12B689842E5D0114B1B68984215
:100D7000E1D0019B01330193019B012B00D0FEE7E1
:100D8000206A02F0A8FE3071236A5B6834603D6817
:100D9000B360D1E7DC040020DC0000209A6400008E
:100DA00058640000C6640000F0640000D800002011
:100DB000000000200400002038B5064D04466022E3
:100DC0000021284603F073FA21462846FFF7C0FEAB
:100DD00038BD00BFDC0C002013B5094B01A913F886
:100DE000300000F075FE48B9019803F09FFC0446FE
:100DF000019803F0BAF9204602B010BD0124FAE7C9
:100E0000446000001FB50F4B01A913F8300000F03B
:100E10005FFEA8B9019802A901F00AFE044668B96C
:100E20009DF80B30032B03D1019803F04DFC0446D1
:100E3000019803F09AF9204604B010BD0124F7E7A9
:100E40000124F8E7446000002DE9F34106460C4612
:100E500017461D460BB9002628E0184602F0A0FFF1
:100E60000028F8D16946FFF733FD009838B901240E
:100E7000009803F07AF9204602B0BDE8F08101A99C
:100E800002F0F0FE0028F2D1009803F06EF930462F
:100E9000019903F057F8736A5E686B79012B21D1D1
:100EA000002CD8D12B68834298BF00262146002011
:100EB000FFF7FEFA6946C0B200F00AFE0028D6D15C
:100EC000009820233A46314603F050F904460028A2
:100ED000CDD1002DCCD03C680D4BE41A18BF4FF09B
:100EE000FF34C5E7022BB6D12B68012B05D983420D
:100EF000B1D8B4FA84F46409ADE7ACD1002CD5D0F4
:100F0000012CA8D12C79023C18BF0124A3E700BF13
:100F10003DB8F3962DE9F04F074685B00C460146E3
:100F200000201646FFF7BEFC051E50DB3846E46D78
:100F300002F08DFE5FFA84F96B1E09FB03084FF087
:100F4000000A4FF0010B4FF0FF349DB9BAF1010FC9
:100F500003DD2148452103F0FBF8631C06D07F2CFC
:100F60002ADC013440F201133460B380284605B016
:100F7000BDE8F08F6B1E00930DF10F020123414677
:100F8000384603F0F3F8031E019322DB01220DF132
:100F90000F01384603F033FB019B40B15B4501D0A4
:100FA0000AF1010A009DA8EB09089B46CDE7B4F1C0
:100FB000FF3F08BF2C46F5E70223803C73716310A6
:100FC00004F001040133013433603471CEE70725A6
:100FD000CCE70125CAE700BFFC64000038B5816A90
:100FE000426D914208D0531C8B4205D013485721C3
:100FF00003F0AEF8002038BD80291CD910485721D5
:10100000F6E7446A056D04EBC30405EBC3056468A9
:101010006D68AC4202D00B485721E9E701339A4290
:10102000EFD1914205D9436A03EBC2035B68A34247
:10103000F1D10120DFE700231C46F0E71F65000027
:10104000576500008665000000B589B004A902203C
:1010500003F047FB9DF81020012A41D0254B26497B
:10106000032A08BF0B469DF8132002929DF8122018
:1010700001929DF81120214800924921204A03F055
:1010800067F806A9052003F02CFB9DF81820012A1B
:1010900028D0184B1849032A08BF0B469DF81B207F
:1010A00002929DF81A2001929DF81920009213488F
:1010B000144A492103F04CF89DF81030012B13D14C
:1010C0009DF81230032B0FD19DF81830012B0BD057
:1010D0000D48492103F03CF8022009B05DF804FBFB
:1010E0000A4BC0E7094BD9E70948492103F030F81A
:1010F0000020F2E7B2650000BB650000CF6500008C
:10110000C16500001066000020660000B6650000A2
:101110003F66000070B54B6814461E4A03F0FF237B
:10112000934286B006460D462FD10B68012B2CD179
:1011300004A9204601F07CFC9DF81020012A26D04D
:10114000154B1649032A08BF0B469DF8132002923F
:101150009DF8122001929DF8112000921048114A2A
:10116000492102F0F5FF9DF81030032B0DD12146E7
:10117000304602F056FE204603F0A6FAA968204643
:1011800002F07EFD204601F033FC06B070BD064B38
:10119000DBE700BF00010004B2650000BB65000092
:1011A000CF65000010660000B66500002DE9F04F25
:1011B000164689B005460C467448492102F0C8FF1E
:1011C0003146284602F0BEFE6B6A824620465E68C3
:1011D00002F0E6FDE8B1E86D02F034FDAF6A0023ED
:1011E000013F3344834201D2013FFAE7BA4510D3AD
:1011F0006748572102F0ACFF07FB06F365480AFB7E
:101200000662572102F0A4FF0123E37109B0BDE893
:10121000F08F06A9022000F05BFC07A9052000F072
:1012200057FC079A21462846FFF774FF6379012B84
:101230004BD1DFF864B1574641E02268C2F10103A7
:1012400053449F423AD86B6A196853F8370003EB4E
:10125000C703012A53F8083CA3EB0103A0EB0109E3
:10126000049311D1079B0393E368022B08D04146F6
:10127000284602F0D6FD22464146284602F007FEE7
:101280000399284602F0CDFD32464946404602F019
:10129000C6FD049B42464146CDE900962846FFF72D
:1012A00015FC2146284602F088FD2368013323609F
:1012B00020B1DBF800300133CBF80030013FDDF81E
:1012C0001880002FB9D10123236002236371012705
:1012D000BA45DDF8189006D2484602F046FF079856
:1012E00002F043FF92E723689F424DD36A6ADDF81C
:1012F0001CB052F837100491FB00083B11680391B1
:10130000D1582A6DD0581368A0EB03082379012B1C
:1013100038D1039B3246C91A4846059102F07FFD39
:101320000599009143464A46594601962846FFF7DB
:10133000CDFB2146284602F040FD0223237118B15F
:10134000154A13680133136032464146584602F08D
:1013500066FDDDE9032349469B1ACDE900865A461E
:101360002846FFF7B3FB2146284602F026FD2368F6
:10137000013323600123237130B1074A136801331D
:10138000136001E0022BDFD00137A1E756660000B1
:101390007F660000AE6600003C0D0020BFF36F8F3B
:1013A00072B6124B4FF0FF32C3F88020C3F884208E
:1013B000C3F88820C3F88C20C3F89020C3F8942089
:1013C000C3F89820C3F89C20C3F88021C3F8842177
:1013D000C3F88821C3F88C21C3F89021C3F8942165
:1013E000C3F89821C3F89C21704700BF00E100E0DA
:1013F000134A4FF0FF3301215160C2F84833C2F85D
:10140000083302F5C0425160C2F84833C2F80833CD
:1014100002F598325160C2F84833C2F80833A2F599
:1014200008320021C2F80015C2F8083302F5E8328C
:10143000C2F808354FF08042C2F80833704700BF49
:1014400000B00040014B1B68184700BF0800002097
:1014500007B50B46002102460091034800F014F93D
:1014600003B05DF804FB00BF451400002DE9F04710
:10147000058B04462807904611D4022905F007057C
:1014800040F0CD80204602F089FD78B10138218BF3
:10149000042811D8DFE800F0C3106D8595000129FC
:1014A0000CBF45F0100545F02005258388F3118811
:1014B000BFF36F8FBDE8F08701F0070AAA4500F07F
:1014C000A6800027B9463E46A368002B00F0BD80E9
:1014D00041F00801218388F31188BFF36F8FA16861
:1014E000002900F0BB800D68002900F0B780D1F81A
:1014F0000480334652462046C047002D76D02B68E4
:1015000029461D46F0E701F007035A1F012A1BD8A0
:10151000002221F00701062B276889B2C4E90022C6
:1015200009D13B4603E0628B013262831B68002BCA
:10153000F9D141F002012183204602F02FFD00285D
:101540007BD041F0200177E0042B0AD121F0070184
:1015500089B22183204602F021FD10B141F0200123
:101560002183218B01F0070AAA4550D00027B946F4
:10157000AAE7236921F0070141F00601062DD3F8FF
:10158000009021832DD1B9F1000F40D041F0080126
:10159000218388F31188BFF36F8F3A492046C847EB
:1015A00029E021F00701236941F0040189B2042DEB
:1015B000D3F804902183E6D000273E464FF0040A7A
:1015C00082E721F00701236941F0050189B2052D69
:1015D000D3F808902183D6D000273E464FF0050A65
:1015E00072E700273E464FF0060A6DE72B4687E775
:1015F000B9F1000FD1D14FF02003EFF3118883F33D
:101600001288BFF36F8F238B23F008032383258B6E
:10161000EA062ED525F01003238305F00705666939
:10162000218B002EBFF66FAF00232768C4E900337B
:1016300021F0070141F001012183218B01F0070A0C
:10164000AA454FF000097FF43FAF002F9BD041F037
:101650000801218388F31188BFF36F8F002FC7D053
:101660003D68394633465246204602F0C3FC2F46B9
:10167000F4E7AB067FF51AAF25F02003238305F0CE
:101680000705FFE6214000002DE9F04F8DB01D4613
:10169000531E8246019103934FF00009039B587833
:1016A000252803F1010419D11E4600204FF0FF3810
:1016B000023603460290444631780396392954D8BD
:1016C0001F2914D8002900F0EE8101992520D04768
:1016D00001993078D04709F10209DFE7002800F0CE
:1016E000E2810199D04709F101090394D6E7A1F1FC
:1016F0002002192AE9D801A757F822F0651700003F
:10170000CB160000CB16000065170000CB160000BA
:10171000E5170000CB160000CB160000CB1600002A
:10172000CB1600003118000065170000CB16000032
:1017300045180000F1170000CB160000FF1700004D
:101740001F1800001F1800001F1800001F180000BD
:101750001F1800001F1800001F1800001F180000AD
:101760001F18000008460136A6E7582900F0EB8054
:10177000A1F16302D7B2172FA7D8172AA5D801A7BE
:1017800057F822F0ED1900006B180000CB1600008E
:10179000CB160000CB1600004B1800006B180000A1
:1017A000CB160000CB1600004B180000CB16000033
:1017B000CB160000CB16000021190000CB1600004C
:1017C000CB160000C1190000CB1600006B180000FA
:1017D000CB160000CB16000021190000CB1600002C
:1017E0004B18000001992520D04709F1010955E760
:1017F000029A02F0FE0202924FF00008B3E7002CBA
:101800000DDAB8F1000F0DDA029A002A00F04381D8
:1018100024EAE4740A2202FB0414303CA3E7B8F182
:10182000000FF5DB0A2202FB0812A2F130089AE74A
:10183000B8F1000F55F8042B80F22F81002A80F2B6
:101840002E815442022202928DE7682903D1682B2F
:1018500006D1482387E76C2902D16C2B00F0218147
:10186000002B7FF432AF0B467DE77A2B06D175292A
:1018700055F8046B14D14FF0000B0CE06C2BF6D034
:101880004C2BF4D1073525F007037529D3E9006BFC
:1018900003F1080506D120283BD1854F013C09E022
:1018A0004FEAE67BBBF1000FF5DA7642814F6BEB36
:1018B0004B0B013C0DF12D0305930023049330469F
:1018C00059460A220023FEF709FC059B303203F833
:1018D000012DB4460593049B5A46BCF10A0F8B4672
:1018E00072F1000203F1FF3106460491E7D2C3F121
:1018F000010B30330DEB0306B8F1000FA6F104061F
:101900006DDA029BD9077DD4A8EB0B03A4EB0B0483
:1019100013E02B280ABF684F684F04F1FF34C9E772
:1019200070290FD155F8042B0023FAB9634F644E88
:10193000053C6FF004034FF0050B029A920770D438
:10194000A04666E078216C2B03D155F8042B0023C8
:1019500008E04C2BF9D1073525F007031D465B68DD
:1019600055F8082B232825D1880621D5554F023C50
:1019700001F06001A1F1390B0DF12D0E002602F0EE
:101980000F01092988BF594430310EF8011D102A72
:101990004FEA121141EA03714FEA131C73F100037D
:1019A00006F1FF3008D2C6F1010B06F13003A1E7C2
:1019B000454FDCE7414FDBE706460A466346DEE774
:1019C00055F8046B304602F050FCB8F1000F834626
:1019D00002DB4045A8BFC346384F4FF00008A8EBD4
:1019E0000B03002B92DDA4EB0804A6E755F8043B9B
:1019F0008DF81830314F013C4FF0FF334FF0010BA1
:101A000006AE9AE7A046EAE7029301992020D04764
:101A1000029BB8F10108F7D524EAE472013C914435
:101A2000A41AB84606E0049302920199D047029A9C
:101A3000049B9046424612F8010B0028F3D11A4647
:101A4000013A15D5002BACBFC7EB03077F425B46BD
:101A5000013B15D5BBF1000FA8BF5F444F4426469C
:101A6000013E14D5002CA8BF3F1907EB080915E665
:101A70000493029201993020D047049B029ADFE739
:101A80000293019916F8010BD047029BE0E70199F8
:101A90002020D047E4E70122D5E6904663E61446CD
:101AA00061E64C235FE648460DB0BDE8F08F00BF0D
:101AB00000680000FE67000002680000FB64000090
:101AC0000A680000046800000768000001F03CBCE0
:101AD00070B5114B1C680D46DCB1104B1968002322
:101AE0008B4202DB6FF0010070BD224612F8106BD2
:101AF000864202D001331446F2E7E06810B96FF075
:101B00001200F1E704F076F90028F8D02C600020EC
:101B1000EAE76FF00C00E7E70C00002050600000DF
:101B200070B588B005460C46C0B269461646FFF748
:101B3000CFFF00281BDB0098C8B14368029383687D
:101B400022680195CDE903360023CDE906230593EC
:101B5000C56802F00AFB6DB12846084901AA02F0E7
:101B6000BBFC079808B9059B236008B070BD6FF0F7
:101B70001500FAE76FF01200F7E700BF054200001A
:101B8000014910220A60704710ED00E072B649402A
:101B900081F31188BFF34F8F20BF80F3118862B6A5
:101BA000704700BF40B2002807DB044A4109012307
:101BB00000F01F00834042F82130704700E100E050
:101BC00040B200280CDB4309064900F01F00203317
:101BD0000122824041F82320BFF34F8FBFF36F8F64
:101BE000704700BF00E100E0054B420900F01F0014
:101BF00053F82220012303FA00F01040704700BF81
:101C000000E100E040B20028A8BF00F1604001F10F
:101C10000101B8BF064B4FEA4111ACBF00F561406E
:101C200000F00F00C9B2B4BF195480F80013704718
:101C300014ED00E030BFFFF7FDBF00BF0B4A08B551
:101C40000B4B22F07F029A60BFF34F8FBFF36F8F71
:101C5000D3F8882022F47002C3F8882001F024FE13
:101C600001F06AFE00F0AAF901F02AFE000000006F
:101C700000ED00E01EF0040F0CBFEFF30880EFF35F
:101C80000980816911F8021C0229FFD001B502F018
:101C9000DDFA01BD10F1160F074B08D0984208D3AA
:101CA0004033834205D98B4203D9044870474033FF
:101CB000F9E70020704700BF402F0020802F002050
:101CC00004462025084611461A46084B83F3098826
:101CD00063B64FF0000383F31188BFF36F8FA04703
:101CE00085F31188BFF36F8FFEE700BF8057002098
:101CF00001B5EFF30580A0F110004FEAC0000449E0
:101D0000014409C99847BDE801400249084700005D
:101D1000985E0000191D0000704700BF70B5264B8B
:101D200015469A6A12F0100F9A6A14BF11241024F3
:101D300012F0080F9A6A18BF1224920706460AD5B5
:101D4000586B9A6A140634D519B19A6A22F0800247
:101D50009A62132401E06FF01500174B9A6A12F093
:101D6000010F9A6A18BF142412F0200F9A6A18BF44
:101D70001524D20602D49B6A9B070AD50E4B5B68DA
:101D8000190506D53146FFF785FF10B180F30988A4
:101D90000224094B9A6A920642BF5A6A22F4005200
:101DA0005A629A6A42F0FF029A6200232B70204620
:101DB00070BD6FF01500CCE700ED00E0134B9A6AA0
:101DC00012F0007F9A6A14BF1E201D2012F0807F3F
:101DD0009A6A18BF1F2012F4002F9A6A18BF212098
:101DE00012F4802F9A6A18BF222012F4003F9A6AD8
:101DF00018BF232012F4803F9A6A6FEA02426FEA0A
:101E000012429A6218BF2420704700BF00ED00E024
:101E100010B5194B0246986A9C6A10F4805F14BF93
:101E20001720162014F4006F9C6A18BF1820A40510
:101E300009D5986B986A000404D51AB19A6A22F4FD
:101E400000429A6219200C4B9A6A12F4806F9A6AC7
:101E500018BF1A20D2050CD49B6A13F4005F18BF78
:101E60001C20054A936A43F47F43936200230B705E
:101E700010BD1B20F5E700BF00ED00E070B5454B3D
:101E80005B688AB00546C3F30803002686F3118811
:101E9000BFF36F8F02F07F40B0F17F4F11D102F09E
:101EA0000C0008280DD010074CBF0D46012600225B
:101EB000033B8DF80720032B05D8DFE803F01E5DF8
:101EC000615A3546F3E700249DF807309BB920227C
:101ED000294602A802F0E0F9099B002E54D0C3F372
:101EE000080222B96FEA53236FEA4323099302A938
:101EF000204602F0A9F90AB070BD264BDA6A9107B4
:101F0000E1D4DA6A002ADEDBDA6A5200DBD55A69EC
:101F1000A96942F480725A61BFF34F8FBFF36F8F8C
:101F20005A6931F8021C22F480725A61BFF34F8F54
:101F3000BFF36F8F4DF6027291420AD09A6AD2B205
:101F40004AB10DF1070201212846FFF7E7FE0446DA
:101F5000BAE72C68B8E79A6A12F47F4F05D00DF102
:101F600007010120FFF754FFF1E79B6AB3F5803FBB
:101F7000A9D3FFF723FFEAE70DF107020021E3E70A
:101F80000DF107010020EDE723F4FF7323F00103B7
:101F9000ACE700BF00ED00E0024A536943F01003D4
:101FA0005361704700ED00E0EFF30880EFF3098123
:101FB00001B57246FFF762FF01BD00BF0448002370
:101FC0002021C2180133272B82F80013F9D1704762
:101FD00000E100E0002080F31488BFF36F8FFFF76B
:101FE00075FD00200D490860BFF34F8F0C4880F34A
:101FF000088800F03DF8202080F3118809484FF44C
:102000000461401880F30988EFF31480022108432B
:1020100080F31488BFF36F8FFFF710FE94ED00E09C
:102020004057002000270020BFF34F8F0549064B83
:10203000CA6802F4E0621343CB60BFF34F8F00BF66
:10204000FDE700BF00ED00E00400FA050749D1F804
:1020500090200023C2F307221846934200DB70470A
:10206000C1F89830C1F8A0000133F6E700ED00E0B8
:1020700008B572B6002383F31388FFF7E7FF144B0C
:102080004FF0FF32C3F88020C3F88420C3F88820C3
:10209000C3F88C20C3F89020C3F89420C3F898208C
:1020A000C3F89C20C3F88021C3F88421C3F8882199
:1020B000C3F88C21C3F89021C3F89421C3F8982168
:1020C000C3F89C2162B6BFF34F8FBFF36F8F08BD7B
:1020D00000E100E0024B034A0348022100F060B82F
:1020E0000000012000000020C4600000F0B5204E78
:1020F00000258D4239DA446874B353B104F1FF3CD2
:1021000014EA0C0F2FD11F2C2DD907681CEA070FDA
:1021100029D1202C0768D0F808C05FFA82FE1ED9AA
:10212000B4F1004F1DD8013CB4FA84F4C4F11F048B
:102130006400BEF1070F4CEA040C14D827F01F040A
:10214000144344F01004C6F89820C6F89C404CF0A4
:102150000104C6F8A040013201350C30C9E708245B
:10216000E7E73E24E5E76FF015021046F0BD00BF3B
:1021700000ED00E0044B0522C3F89420BFF34F8F1D
:10218000BFF36F8F704700BF00ED00E0BFF35F8FBC
:10219000024B0022C3F89420704700BF00ED00E01E
:1021A00010B5034C01232278FFF7A0FF207010BD6B
:1021B000DC26002014490868082810B521D8FFF74C
:1021C000E5FF124C49680022904201F10C0105D153
:1021D0000F4B1870FFF7CEFF002010BDC4F89820F9
:1021E00051F80C3C23F01F03134343F01003C4F8D1
:1021F0009C3051F8043C43F00103C4F8A030013294
:10220000E2E74FF0FF30E8E7DC60000000ED00E0BF
:10221000DC260020024B0122C3F840250020704735
:1022200000E0014020B1034B800143F00103184757
:10223000704700BF20600000084B70B5C31A0D4600
:1022400007499B10044659430648402202F054F8BF
:102250002B4601462046BDE870401847540D00202B
:10226000B76DDBB6705E000073B50C4C0C4A4023B2
:10227000041B00930D460B460A49A4106143064611
:10228000094802F065F8011E05DA30462B4602B017
:10229000BDE87040184702B070BD00BF540D00206B
:1022A000C1430000B76DDBB6705E000010B54FF0A3
:1022B0002003EFF3118483F31288BFF36F8F074A73
:1022C000136823F00201DB07116002D4012003F040
:1022D0007CFD84F31188BFF36F8F10BDA40D002027
:1022E000002270B5012104461046FFF78BFC0F4811
:1022F00001F098F90E4B984215D101F0A3F9266927
:102300000C49304601F09AFE00280BDB01253564AC
:102310002469084904F11C0001F090FE002801DB4B
:10232000E564002070BD6FF00400FBE76D23000042
:102330000000AD0BFC60000070B501460C2309489D
:102340004B43C418D4E90E56403300221844A2630C
:1023500001F0BFFF2DB132462B460348BDE8704067
:10236000184770BD540D0020705E000010B10128A8
:1023700004D07047034B1B6C5B0701D1FFF7DCBF38
:10238000704700BF540D002008B54FF02003EFF355
:10239000118183F31288BFF36F8F124A136843F0E1
:1023A00002001060DA0708D481F31188BFF36F8F41
:1023B0000120BDE8084001F057B94FF08043D3F841
:1023C0000C24D3F80C34DB07EED5074801F081FF6D
:1023D00081F31188BFF36F8F0020BDE80840FFF73D
:1023E000ABBF00BFA40D0020940D002010B5074C1A
:1023F00023782BB94FF4A57003F0F7FC0123237069
:10240000BDE81040002001F02FB900BFDD260020FC
:102410002DE9F8433649BFF35B8F0746012251E8A7
:10242000003F41E800200028F9D1BFF35B8F33B9AA
:10243000304931484B60CB608A6001F012FE7B1E50
:10244000012B2DD8012F07D14FF08043D3F81C3436
:1024500003F00303012B23D003F0EBFC054608BB7C
:10246000264B1B78F3B14FF080430222C3F80823B8
:102470000646DFF88C904FF080444FF00108D4F806
:102480001824D4F81834D20316D503F00303012B13
:1024900001D0012F10D12DB386F31188BFF36F8FB8
:1024A000BDE8F8834FF02003EFF3118683F3128821
:1024B000BFF36F8F0125DCE73046FFF767FBD4F8E9
:1024C0001835002BDBD1D4F80421002AD7D0C4F86A
:1024D0000431D4F80431C4F81885C9F88081C4F8EF
:1024E0000880CCE74FF080430222C3F80423D7E7EB
:1024F000500D0020400D0020700D0020DE26002031
:1025000000E100E0024B0B6001231360704700BF45
:10251000A80D0020004870475061000010B503F07E
:1025200060FC034C206003F058FC6060002010BD8C
:10253000A80D0020F8B50E463046194617461D4630
:1025400001F04AFFB8B146EA050414F0030412D1C1
:102550004DB12B19032BA6EB040006D8074AD2F87D
:102560000034DB07FBD50020F8BD3B1B043C196899
:1025700001F050F9EDE76FF01500F5E700E00140DC
:1025800070B5012383400E4ABFF35B8FDC4352E8F2
:10259000001F01EA040542E80056002EF7D1BFF300
:1025A0005B8F4FF4803282400648C0F80823BFF3A7
:1025B0005F8FBFF36F8F0B4214BF0120002070BDEF
:1025C000B40D00200010014070B40E49D1E9003470
:1025D000D01AC31844F1000422F07F46C1E9003448
:1025E000A6F50013B3F5400F09D2074B1B681A0A72
:1025F0001B069C19054B42F10005C3E9004570BC60
:1026000001F0FAB940000020B80D00204800002079
:1026100011B3BFF35B8F0123104A834052E800CF10
:102620004CEA030C42E800C10029F7D1BFF35B8FED
:102630000B4A4FF480338340C2F80433094BBFF395
:102640005B8F1B68BFF35B8FC340DB0742BF064B4A
:102650004FF40032C3F80021704700BFB40D0020D2
:1026600000100140B00D002000E100E00D4B1868A3
:10267000010A0006BFF35F8F0B4BD3F8043518181F
:1026800041F10001B3F5801F0AD2084BD3E90023C2
:10269000904271EB030303D210F1807041F100010D
:1026A000704700BFB80D0020001001404800002016
:1026B0002DE9F04F85B016461F469DF840A0044610
:1026C000FFF75EFF0190FFF7D1FFB04271EB070308
:1026D00054D23E4B301A67EB0101984271F1000170
:1026E0004FD23B4B03EB0413D3E902239F4208BFB5
:1026F00096425ED037494FF4803804F1500508FA0D
:1027000004F8AD00C1F848832046ADB201F010FFD7
:1027100026F07F4B05F1804504F5A87305F5883553
:10272000DC464FF003090293029A2CF07F4341F8F4
:102730002230C1F84483D1F80435274A6FF00200F3
:10274000C01A604420F07F40904232D9286868B1B6
:10275000D1F804350393A3EB0B0020F07F40B0F5D4
:10276000000F26D9204601F0E3FE039BBAF1000FCB
:1027700007D109EB030C09F10109D5E7BAF1000F04
:1027800009D06FF0150520460199FFF741FF284653
:1027900005B0BDE8F08F0123104ABFF35B8FA34063
:1027A00052E8000F184342E800010029F8D1BFF3B6
:1027B0005B8F07490E98230101EB0412C8500F9B51
:1027C0005360C2E902670025DDE700BF0100800019
:1027D0003000002000100140FDFF7F00B00D002000
:1027E0007FB51C4C1C4BC4F80833C4F848331B4B52
:1027F00000254FF0FF304FF0FF31C4F80855C3E912
:1028000002014FF48033C4F80433154B02264FF411
:1028100000320121C4F804631120C3F880212A4644
:10282000FFF7F0F91120FFF7BDF90E4A0123A3606D
:10283000236013600C4B0D4A0093CDE90155002332
:102840002846FFF735FF3046FFF7E2FD284604B083
:1028500070BD00BF0010014003000F0030000020D9
:1028600000E100E0B40D0020C9250000FFFF7F005B
:102870002DE9F7432F4CD4F8043399070BD5D4F83E
:10288000043143B12C4A0023C4F80431D4F8043194
:10289000136801331360D4F80433DA032AD5BFF385
:1028A0005B8F264B53E8002F22F0010143E8001014
:1028B0000028F7D1BFF35B8FD30702D4D4F840319F
:1028C000C3B10025C4F84051D4F84031FFF7CEFE23
:1028D0004FF02003EFF3118283F31288BFF36F8F61
:1028E000174BD3E90267B042B94106D282F311888F
:1028F000BFF36F8F03B0BDE8F0834FF0FF384FF0A8
:10290000FF39C3E90289D3E900101D604FF4803319
:10291000C4F84833C4F84051D4F8403182F31188E8
:10292000BFF36F8F0029E5D0009032463B46284622
:102930008847DFE700100140B80D0020B00D0020EF
:10294000300000201FB5431C23D0012823DD134A8B
:10295000134B9042D4BF04461C46FFF787FE114B31
:102960000F49D3E90023801AB0F5000F28BF0024D7
:1029700004448C4228BF0C46A2180B4900914FF02A
:102980000000CDE9010043F10003FFF791FE04B020
:1029900010BD034CE1E70124DFE700BFFEFF7F002D
:1029A000FFFF7F0040000020C925000008B5FFF7A9
:1029B0005DFE024B1B68C01A08BD00BF400000202E
:1029C00010B5084C012363601120FFF7F9F8064B9E
:1029D000C4F80833C4F84833044B4FF40032C3F84A
:1029E000802110BD0010014003000F0000E100E055
:1029F00030B5816885B0103921F00704054601F033
:102A0000FAFB10220146684601F051FC07491022EA
:102A1000684601F041FC10236A462146284601F031
:102A2000BAFB003818BF012005B030BD906200002D
:102A300030B50D46816887B0102302AA10390446CC
:102A400001F094FB002802DA012007B030BD10220B
:102A500002A9204601F0D3FD00283AD11E491022D8
:102A600002A801F009FC00280CBF012302232B70EF
:102A7000204601F0B0FD012301460DF1070220467A
:102A800001F074FB0028DFDB9DF8073003F00F0234
:102A90001B096A702B7101220DF10701204601F01C
:102AA000AEFD10B96B78042B03D901236B700023A2
:102AB0002B71A268183A22F00702083AA91C204696
:102AC00001F0B0FD0028BFD1E91C204601F003FE53
:102AD000BBE70323CBE700BF90620000F0B5354FA2
:102AE000460085B00546694657F8260001F0F9FD15
:102AF000044610B1FF2005B0F0BD013602A957F819
:102B0000260001F0EEFD012837D12B482A46492145
:102B100001F01EFB294B02938DF80C409DF80060DC
:102B20009DF80870264C00222078314601F059FDAE
:102B300050B36078394601F054FD28B3A378042BD4
:102B400003D09DF8031099421ED1E378042B03D0E3
:102B50009DF80B10994217D12379042B10D162797B
:102B6000022A1DD1174B18482A46492101F0F0FAD4
:102B70006079831E022BBED9BCE70028CED0B9E70E
:102B80009DF802109942EAD00132032A04F10604AA
:102B9000CAD10E482A46492101F0DAFA0120AAE7F3
:102BA000032A05D00A4B0B49042A08BF0B46DAE773
:102BB000094BD8E758610000A36800000301030334
:102BC0003869000085680000EE68000012690000A6
:102BD0008A6800009C68000080680000014B1B6848
:102BE000184700BF18000020014B1B68184700BFA2
:102BF00014000020024B1860024B0020196070473F
:102C000018000020140000200A4619B1024B0021D0
:102C10001B681847704700BF1C000020044B1A793E
:102C20000AB1824201D1186870470833F7E700BF44
:102C30006061000001680E4A9142034615D1C169E6
:102C4000A2F11022A2F1EF1291420ED18268012A64
:102C50000BD8C26812B101698A4206D0586928B1FE
:102C60009B691B1A5842584170470120704700BFAA
:102C700055AA00FF70B50D4B9E68A6B13046FFF710
:102C8000D9FF044678B9F3686BB935690DB92046A8
:102C900070BD2846FFF7CEFF28B9EB68B34202D1DA
:102CA0002E462D69F2E70124F1E700BFBC0D00209C
:102CB0002DE9F8433F4F3C68D4B1BC68C4B100284B
:102CC0004AD0002948D001FB00F5B5FBF0F088425E
:102CD00042D1281D40D8A9070DD025F0030604369F
:102CE000FC6803E06368B34238D2A469002CF9D1D0
:102CF0002046BDE8F8832E46F2E7FB6041E006F18E
:102D000020016318203A5A600022C3E902242A48AD
:102D100022691A6160502949D96102B1D3606269A0
:102D20005A61A1699961AAB193619A6902B153612B
:102D30004FF00109C4E9016923610023C4E90533A7
:102D40003B69DB072ED5FFF795FF58B31C4B484670
:102D50001B6826E0FB60E8E70024C9E7A3681BB115
:102D6000174B01201B6898476268921B232A04F1C5
:102D70002008C4D80123A360D4E90523002ABCD0CD
:102D80009361A3690BB162695A610023C4E90533F9
:102D90003B69DA0706D5FFF76DFF18B1084B1B68D2
:102DA000012098472A4600214046444601F07FFA18
:102DB0009EE700BFBC0D002055AA00FF669911EEEA
:102DC0001000002070B50546002800F08880444EB1
:102DD0003368002B00F08380B268002A7FD08342E2
:102DE00003D872681344984203D33E4B01201B68FA
:102DF0009847A5F120042046FFF71CFF18B1394B76
:102E000001201B68984755F8183C012B03D0354B1F
:102E100001201B689847002345F8183C55F8143CDE
:102E20003BB39A682ABB55F81C2C02F120015A6862
:102E30000A445A6055E905321A6155F8145C2B6949
:102E400003B1DD6020220021204601F030FA28691C
:102E500010B18368002B2ED033699B073FD5FFF755
:102E600009FF00283BD01F4BBDE870401B680120C4
:102E7000184755F8100C00282AD0836843BB4268D5
:102E8000636813442033636003692361D4E9052335
:102E90009AB9CBB9436963618269A261B3B19C619C
:102EA000A36903B15C61236903B1DC6020220021C6
:102EB00001F0FDF9D0E72C46E1E79361A369002B0F
:102EC000E8D062695A61E5E7F360F7E7F460E7E7A5
:102ED000F36845F8083C03B15C61F460BCE770BD81
:102EE000BC0D00201000002038B514220C46054609
:102EF0000021134801F0DBF912491348FFF77AFE6D
:102F0000232C1CD915F003031FBF043CE418C3F1A4
:102F10000403ED1822460021284601F0C8F9084BA9
:102F20000A499D60C3E90054203C6C609A681160B6
:102F30009A68DA60A1F11021A1F1EF11D16138BDD9
:102F4000BC0D0020C52D0000B12C000055AA00FFCB
:102F5000F8B500F108064768044630460D4601F012
:102F600043FD87424BD16368B3F5807F47D800218A
:102F7000304601F031FE002841DD0021304601F0ED
:102F80001FFDE0B345B9294604F1140001F024FE09
:102F9000002834DD0020F8BD04F12C05002128466E
:102FA00001F01AFE00282ADD0021284601F008FD64
:102FB00028B304F138050021284601F00DFE002851
:102FC0001DDD0021284601F0FBFCC0B1002104F109
:102FD000140001F001FE002811DD002104F144007D
:102FE00001F0FAFD00280ADD002104F1500001F093
:102FF000F3FD002803DD002104F15C00C6E7014871
:10300000C9E700BF80BFFFFF012938B50546144658
:1030100001D0074838BD22B90123C5E92934002071
:10302000F8E71046FFF7FAFD0028F5D1F1E700BFF9
:1030300000BFFFFF70B500210446FFF789FF05467A
:1030400010B10E4D284670BD04F10806304601F05F
:10305000C7FC7F28F5D914342946204601F0B0FC7E
:103060000028EED0204601F0BBFC0128E9D931460A
:10307000204601F070FD0028E4DBE2E700BEFFFF20
:10308000F0B50C4687B0002105461646FFF760FFF5
:10309000002839D103A801F0ECFB21466A6803A897
:1030A00001F0A8FC044618B103A801F0E8FB0CE00D
:1030B00005F10804214603A801F04DFD002807DBB7
:1030C00003A801F0DCFB6FF00304A4F5854418E0CD
:1030D00005F1680303A96F68009305F11402234604
:1030E000084602F054F804460028DDD13A4631463D
:1030F00003A801F095FC044603A801F0C0FB002CD6
:10310000E3D1204607B0F0BD004CFAE780BFFFFFD7
:1031100001292DE9F041034641D8224A224F234894
:10312000234E244D244C9966002918BF9046234A0B
:1031300018BF964602F1794202F5740202F5016267
:1031400018BF94461E4A18BF17461E4A18BF164697
:1031500002F1D14208BF804602F5C0121A4802F5BA
:103160001E620CBF864615461848194A0CBF844695
:1031700014461848A2F11162A2F50C22A2F28E2286
:1031800018BF02460020C3E90000C3E9028EC3E96C
:1031900004C7C3E90665C3E90842BDE8F0816FF0E2
:1031A0007300FAE7D89E05C13AF54FA567E6096AAC
:1031B0007F520E518C68059BABD9831F07D57C3697
:1031C00039590EF7310BC0FF85AE67BB72F36E3C09
:1031D000A78FF964A44FFABE2DE9F04FD1B0031DBB
:1031E000019300F124030DF58E7B0393019B5A4656
:1031F00053F8040F42F8040F03989842F8D14F9BFC
:1032000002934CADDDE94AE395E82011DDE948077A
:103210000493424B059306AA4FF00009B9F10F0F32
:1032200063D84C780B78240444EA0364CB782343B6
:103230008C7843EA04234FEAF52A8CEA0804059EB9
:1032400093608AEAB51A2C408AEA756A84EA0C040B
:10325000544456F804AB059654442344029CCDF8DC
:1032600008C023444FEA703A40EA07048AEAB00AE9
:1032700004EA0E0400EA07068AEAB05A34435444CA
:1032800009F10109DDF810A0CDF810E0B9F1400F07
:103290009A4402F10402234401F104011ED1CDE954
:1032A0000634CDE94E8CCDE94CA5CDE94A7ECDE979
:1032B0004830019A52F8043F01925BF8042F1344FE
:1032C000019A1360039B9342F3D106A84FF49471C3
:1032D000FFF79AFC002051B0BDE8F08FBE46C4460F
:1032E0000746A8461846554698E7136852F8384CE2
:1032F00052F8346C4FEAF34A8AEA734A8AEA932A0C
:1033000052F8143C234452F8344C4FEAB44484EA53
:10331000F614534484EAD60423448CE77861000011
:103320004FF0704393F8E02F062A09D1D3F8E83F15
:10333000C3F30313033B042B02D8024AD05C70474B
:10334000002070475969000008B502F02DFD40B11A
:103350004FF08053784AD3F82433C3F30423C2F8E0
:103360004035FFF7DDFF10B1744B754A5A6702F024
:103370001BFD48B14FF080534FF08042D3F84432E8
:10338000C3F34233C2F83C35FFF7CAFF30B16D4A90
:10339000D2F8FC3023F08073C2F8FC3002F004FD58
:1033A00040B14FF080430022C3F80C21C3F8102134
:1033B000C3F83825FFF7B4FF20B14FF08043032254
:1033C000C3F8A025FFF7ACFF60B15F4B0522C3F83F
:1033D00010260122C3F888260022C3F818263F22AF
:1033E000C3F814264FF08053D3F83021511C09BF85
:1033F0004FF07043D3F8343193F8E02FD3F8E83F1F
:1034000008BFC3F30313062A4DD1033B042B03D893
:103410004E4AD35C002B46D04FF080524C4BD2F832
:103420000414C3F82015D2F80814C3F82415D2F8F0
:103430000C14C3F82815D2F81014C3F82C15D2F8C0
:103440001414C3F83015D2F81814C3F83415D2F890
:103450001C14C3F84015D2F82014C3F84415D2F850
:103460002414C3F84815D2F82814C3F84C15D2F820
:103470002C14C3F85015D2F83014C3F85415D2F8F0
:103480003414C3F86015D2F83814C3F86415D2F8B0
:103490003C14C3F86815D2F84014C3F86C15D2F880
:1034A0004424C3F8702502F07FFC48B14FF08053EC
:1034B0004FF08042D3F8583203F04F03C2F8E43E95
:1034C00002F072FC48B14FF08043D3F80024D207D9
:1034D00044BF6FF00102C3F800244FF08053D3F8CB
:1034E0003021062A26D1D3F83431033B042B02D8ED
:1034F000184AD35C63B1184AD2F83C3743F480636E
:10350000C2F83C374FF08053D3F83031062B11D13D
:103510004FF08053D3F83431033B042B02D80F4AC9
:10352000D35C3BB14FF01023D3F808224FF0804317
:10353000C3F8582508BD00BF0030014000C0074057
:103540000DF0ADBA00ED00E00050004054690000FD
:1035500000C000404F690000001000404A690000B0
:10356000F7B5044618B1012823D003B0F0BD4FF0E1
:1035700080430222C3F808230122DA60C3F8040161
:10358000D3F80431064601238DF8073042F2107556
:103590004FF08047D4B1012CE7D1D7F80C3403F4B5
:1035A0008033AEBB83B3012002F00DFC013DF4D1AA
:1035B0002AE04FF080430022C3F808035860C3F8A4
:1035C0000021D3F800310DF10706DCE7D7F81834F5
:1035D00003F480333EB9002BC7D0012002F0F3FB87
:1035E000013DF3D1C1E7D7F8182402F0030232609D
:1035F000002BBAD09DF80700012803D102F0E3FBAD
:10360000013DC7D1012CB0D1054B00225A71ACE766
:10361000D7F80C2402F001023270002BEAD1F3E754
:10362000D00D0020044B1A7922B9012218609A802B
:103630000248704702487047D00D00200000AD0BD3
:103640000C00AD0B08B5074B1B682BB10020FEF733
:10365000CBFA08B9FEF7A6FA4FF080430022C3F870
:10366000182508BDD00D002038B5B0B1012855D1BE
:103670004FF080420023C2F80031D2F80021304AD6
:1036800003F18043012119602E4B1B68002B50D0A1
:103690004FF08043C3F8040340E04FF08043D3F879
:1036A0001814D3F81824C8032AD502F00303012BF9
:1036B00004D013B10020FFF753FF00234FF08042E6
:1036C000C2F818350023C2F80431D2F804311E4A7A
:1036D000D2F8FC0040F08073C2F8FC301B4B1C6831
:1036E00044F0010119605D685968491BB1F50A5F32
:1036F000FAD31C60C2F8FC000823154A0220BFE779
:10370000D3F81424D107D8D5D3F81C249207D1D4E8
:103710000C4A12681AB10222C3F8042338BDD3F848
:103720000421002AFBD00022C3F80421D3F804317D
:10373000F4E71368002BFCD0002313601368EDE757
:1037400000010040D00D002000ED00E0001000E07E
:103750000401004010B54FF08043D3F800216AB156
:103760000022C3F80021D3F800210122C3F8082366
:10377000114B587910B95A711B6898474FF0804324
:10378000D3F8042172B10022C3F80421D3F8042134
:10379000D3F81824D3F81824920704D10122C3F8CF
:1037A00018259A6010BD0222C3F80823024BBDE819
:1037B00010401B6801201847D00D0020044AD2F8A1
:1037C0000034DB07FBD50160BFF35F8F704700BF9C
:1037D00000E001404FF080531A69B0FBF2F302FBA6
:1037E000130373B9084B0222C3F80425C3F8080574
:1037F000D3F80024D207FBD500220448C3F80425DF
:1038000070470348704700BF00E001400000AD0B67
:103810000A00AD0B10B5054C0123C4F80435FFF7C1
:10382000CDFF0023C4F8043510BD00BF00E0014007
:10383000104B70B553F82040013053F82060A64279
:1038400000D870BDD4E9003595B153B128469847EA
:1038500038B10028B8BF4042EB68FF28A8BFFF205E
:103860001870EA68537843F0010353700834E6E7B0
:103870009847FBE77862000008B5094B0122032056
:103880001A70FFF7D5FF00F01FF90420FFF7D0FFF3
:10389000FCF78EFD034A137B23F00103137308BD6D
:1038A000DE2600205000002008B50348034A00210E
:1038B000121A02F0BAFA08BD30000020E0260020FB
:1038C00008B50020FFF7B4FF184B83F30888184CA5
:1038D000636943F4007363610025E02384F82230B8
:1038E000E57725766576A57684F82050636A43F4FB
:1038F000E023636284F82350FEF74EFBFEF740F9A5
:103900004FF0FF33A362E362FEF754FCFEF7E2FBE5
:1039100002F06FFA0120FFF78BFF0220FFF788FF0C
:1039200004482B462A462946FEF7CAF9402F0020B4
:1039300000ED00E07938000008B50648064A07495E
:10394000121A02F074FABDE80840054A0549064813
:1039500002F06DBA000000202C000020A4690000D5
:1039600000000000A469000000000020034B1B6859
:103970000BB9FFF71BB80020704700BFD80D00201F
:1039800010B50E4B1C689C4204D1FFF7EFFF6FF09F
:10399000004010BDFFF7EAFF002CF8D0D4E9043254
:1039A0001B1A62EBE072B3F1004F72F10001EEDA24
:1039B000002AACBF18460020EBE700BF2000002023
:1039C00030B570B10B4B5B6898420AD0036843B1C5
:1039D000D3E90421D0E90445121941EB0501C3E9FB
:1039E0000421D0E9003213605A600023C0E900339B
:1039F00030BD00BF200000202DE9F84F4FF020031C
:103A0000EFF3118C83F31288BFF36F8FDFF8ACA054
:103A1000DFF8AC902B4FC9F80000DAF80000002462
:103A2000504508BF00200025D7E90021D9F8003013
:103A3000E04680B3D0E9046C4FEAE37EB3427EEB0C
:103A40000C0B05DAF61A6CEB0E04C0E9046422E0F4
:103A5000B21841EBE671C0E90445C7E90021FFF760
:103A6000AFFF88F31188BFF36F8F836898474FF0DB
:103A70002003EFF3118883F31288BFF36F8FD9F817
:103A80000030DAF800009B1B5045C446C9F80030EE
:103A9000CAD1D7E900219A1841EBE3730024C7E9A2
:103AA0000023C9F80040FFF76BFF2146FEF74AFFED
:103AB00088F31188BFF36F8FBDE8F88F20000020D6
:103AC000D80D0020D0000020014800F05ABA00BFF5
:103AD0007569000070470020704730B583688B42DD
:103AE00085B0044615460ED96368C068194401AA1A
:103AF00000F0EEFC28B96268019B9B1A2B60029BC8
:103B00006B6005B030BD6FF02100FAE72DE9F74397
:103B10000E4617469946044628B94FF0FF384046EE
:103B200003B0BDE8F0830029F7D0002AF5D0CB68B8
:103B30000D891D4404230DEB03022946384600F08D
:103B400015FB80460028E8D1BDF80410738946F6BD
:103B50000812914225D1BDF806109942DDD1042307
:103B60000DEB03022944384600F000FB0028D4D1B5
:103B7000BDF8042046F607139A42CED1C4E9006787
:103B80009DF82830A4F80890A3727389BDF8062028
:103B90002B44E360738913442B440435636125612E
:103BA000BDE7002BE4D0B8E72DE9F3410E461746F8
:103BB0001D46044620B94FF0FF3002B0BDE8F08149
:103BC0000368002BF7D04368002BF4D04FF6FF7842
:103BD000D4E904239A4216D223685B8923B1E368AF
:103BE000934204BF043323610423216960680DEB11
:103BF000030200F0BBFA0028DDD1A37A2BB1D4E98F
:103C000003329A4201D30120D7E72389BDF8061079
:103C1000434501F1040203D0BDF804C09C450BD11B
:103C200015B1BDF804302B8023690433336039802B
:103C3000236913442361C0E7236913442361C7E761
:103C400000F01ABB4FF4C07358433030704710B5C2
:103C5000044600F0C9FAA3684FF4C072303B02FB7F
:103C6000103010BD70B50D46044600F0B4FC2A4675
:103C7000A0F1080104232046BDE8704000F076BAA8
:103C800013B50446019100F0A6FC0423A0F108013D
:103C90000DEB0302204600F0E1FC02B010BD70B550
:103CA00013460E461546002102460446FDF7CCF8A1
:103CB00050B92B4604F12C0201212046FDF7C4F82F
:103CC00010B1002E08BF002070BD73B5044600205F
:103CD0000D461646FCF7ECFB6946C0B2FDF7F8FE50
:103CE00030BB2C2303FB05440098E36825891D4461
:103CF00004230DEB0302294600F038FAC0B9BDF8E1
:103D000004206489009846F608139A4215D1BDF83C
:103D100006309C420CD104230DEB0302611900F024
:103D200025FA28B9BDF8042046F607139A4207D0B1
:103D3000009800F01AFA02B070BD002CF2D0F7E73C
:103D4000BDF80610214429443160F1E737B5044637
:103D5000426A802501A902200195FDF7E1FE58B9CC
:103D6000019B226DA36201A905200195FDF7D8FEF4
:103D7000054628B1092500E00125284603B030BDDD
:103D8000019B206A636500F02FFAE065F5E70123E7
:103D9000036003F1012343600023C0E9023370474D
:103DA0004379012B07D10368012B04D10079431E0D
:103DB000584258417047002070477FB506460D466F
:103DC000022001A9FDF784FE38BB0198FFF73FFFF1
:103DD000F16D0446284600F0BFF80444019800F055
:103DE00003FA0646019800F006FA082201460DEB98
:103DF000020000F05CFA2B798DF80830214601981A
:103E0000334602AA00F0C7F9041E019818BF012426
:103E100000F0ABF9204604B070BD0124FAE700F0D1
:103E2000CFB92DE9F8430E46002107460846FCF7B6
:103E30003FFB012104460020FCF73AFB33789C420B
:103E400021D0984221D101252C2303FB0575F86D63
:103E5000AC6AFFF7F7FE013C07464FF000086B6ABB
:103E600003EBC40253F83410D2F804901B684A469E
:103E7000C91A3046C844FFF7D2FFB84504F1FF34F1
:103E8000EDD3BDE8F8830025DEE70120F9E737B57B
:103E900015460C460520694600F023FCE979012906
:103EA00003D00022204600F030FC9DF80330012BA7
:103EB00002D1204600F008FCA9682046FFF7E0FE8A
:103EC0002046FEF795FD002003B030BD73B50D46CA
:103ED0000646FDF7B9F80446E86050B302282DD134
:103EE00001A9FDF7F5FD58BB01982A463146FDF7BB
:103EF00011F80446D0B9019800F06DFB012301468A
:103F00000DF10302019800F031F90446A0B90198BF
:103F100001220DF1030100F072FB10B101238DF8B5
:103F200003309DF8033003F00F03EB71019800F0AC
:103F30001CF9204602B070BD0124F7E70724F8E71A
:103F40000124F6E7436A00205A68034613448B4273
:103F500000F10100FAD3704710B543790279012BC3
:103F600014BFCB01002302F1FF3201FB02330268D0
:103F700014BF4C000C46013A04FB023010BD002077
:103F800070470FB407B504A951F8040B0191FDF770
:103F90005FFA03B05DF804EB04B07047038B13F0D5
:103FA000070305D10368002B0CBF002003207047D6
:103FB000022B05D1408BB0FA80F040098000704799
:103FC000012B05D10368002B0CBF00200520704792
:103FD0000020704710B50C4600B111B96FF0150004
:103FE00010BD081D00F095F80028F9D1A368032B37
:103FF000F6D9F3E72DE9F0410D4607461946281D8D
:1040000090461E4600F096F8044638B133464246C4
:1040100029463846A446BDE8F0416047BDE8F08136
:1040200010B44FF02004EFF3118284F31288BFF331
:104030006F8F416110BC0121FDF718BA38B50C46ED
:10404000054658B151B10B6843B14B6833B11C22DE
:10405000002100F02CF92C61002038BD6FF0150014
:10406000FBE770B505460E46FFF7B4FF041E15DBEF
:104070004FF02003EFF3118283F31288BFF36F8FA9
:104080006B8B2C8B4FF6FF718B4204F0070407D12A
:1040900082F31188BFF36F8F6FF00A04204670BD62
:1040A000022C0CD101336B8382F31188BFF36F8F25
:1040B0000023224631462846FFF79CFFEEE7062CF8
:1040C00014D8DFE804F004131313041A04000023C7
:1040D00033606B683BB9C5E90066ACB9022128467C
:1040E000FDF7C4F9DAE71E606E60F6E782F3118827
:1040F000BFF36F8F6FF00404D0E782F31188BFF332
:104100006F8F6FF08504C9E782F31188BFF36F8F5B
:10411000C4E7034658B1426802F00302012A03D003
:10412000032A04D1026812B10020986070476FF032
:10413000150070474268816002F00302032A4FF0C5
:10414000000203460CBF006810465A607047704773
:104150000FB407B504A951F8040B0191FDF778F9E4
:1041600003B05DF804EB04B070477047002930B429
:10417000044618460BDBA5680844A84207D8E06847
:104180006468214484682468A44630BC60476FF0AA
:10419000150030BC7047002930B4044618460BDBCC
:1041A000A5680844A84207D8E06864682144846888
:1041B0006468A44630BC60476FF0150030BC70479F
:1041C0000029034610B410460ADB9C680844A0424C
:1041D00006D8D8685B681944836810BC9B68184788
:1041E0006FF0150010BC704708B5C0688368DB68C5
:1041F0009847006808BD08B5C0688368DB689847C1
:10420000007908BD70B54C680368A34201D2012053
:1042100070BD8A682244934201D30020F8E7D1E9B7
:1042200003254E69B54203D36FF00B038B61F4E7AE
:104230001B1B42F835304368086902EBC00253602B
:104240000B6901330B61E2E701F0DFBD0146006855
:1042500001F0DBBD00210120FFF7F6BF08B5FDF737
:10426000E9FCBDE80840FDF757BD034600201A5C95
:1042700002B970470130FAE710B55AB10139841814
:1042800010F8012B11F8013FA04201D09A42F7D05B
:10429000D01A10BD1046FCE710B5431E0A449142E7
:1042A00000D110BD11F8014B03F8014FF7E7C9B277
:1042B00002440346934200D1704703F8011BF9E71B
:1042C0000369C9B20C2201FB0233186C00F007002D
:1042D00070474FF02003EFF3118283F31288BFF38E
:1042E0006F8F036803F0C00343F00203036082F39F
:1042F0001188BFF36F8F704770B5C9B203694FF073
:104300002004EFF3118584F31288BFF36F8F0C261E
:1043100006FB0134246C14F0C00408D0A24206D07D
:1043200085F31188BFF36F8F4FF0FF3070BD71437D
:104330000B4401221A6485F31188BFF36F8F436821
:104340000B445B6898470020F0E78022FFF7D4BF5A
:10435000F8B5069F0469C9B24FF02005EFF3118646
:1043600085F31288BFF36F8F0C2569430C44256CCD
:1043700005F0070CBCF1010F0BD1276486F31188FF
:10438000BFF36F8FC4E90E2343685B589847002042
:10439000F8BD05F0C005AF4286F31188BFF36F8FFB
:1043A0000CBF6FF077004FF0FF30F1E713B58024BA
:1043B0000094FFF7CDFF02B010BD6FF0850070478D
:1043C00010B40069CBB21C2403FB0400002110BC14
:1043D0001047002001F0F9BC38B505460C4601F045
:1043E000F6FC002D07DBA84205D9401B84428CBF98
:1043F0000020012038BD0020FCE770B50C461546B2
:1044000001F0EBFC294606462046FFF7E5FFB8B170
:10441000B4FBF6F306FB134393B9B5FBF6F306FBC7
:1044200013536BB9AE4201D9002070BD01F0D5FC29
:1044300006462046FFF7CEF9AD1B3444F9D1F3E729
:104440006FF01500F1E770B50D462846194616467F
:104450001C46FFF7C1FF38B124B122462946304639
:10446000FFF71AFF002070BD6FF01500FBE7F7B5EE
:104470001C461646002382682360A36013690D461C
:1044800001AA69469847019B5A1E01921BB96FF019
:10449000150003B0F0BD0098A26847682168676006
:1044A00085B9B31AD0F800C0634528BF63461A44E3
:1044B00003FB07112160A26002689A4206D8083007
:1044C0000090E0E76B1AB3FBF7F3EBE70020E0E7BF
:1044D00013460022FFF7CBBF2DE9F047836886B073
:1044E0001B698846914601A902AA98470024A24662
:1044F0002546029BAB4202D806B0BDE8F087019F7B
:1045000007EBC50700267B6804933A68B2420AEBC2
:10451000060302D801359A46EBE703940593494612
:1045200003A8C0470028E7D0049B01361C44ECE7F1
:1045300000F150039B009BB203F1804303F58833E5
:1045400000221A601B6870472DE9F0434FF080434A
:104550000446884685B0012744EA080400EB0109B7
:10456000C3F80876050B102200216846C4F30B043B
:10457000FFF79DFE4FEA193624B9B9F5012F01D294
:10458000B54210D96FF015001EE06A0904AB03EBC9
:10459000820205F01F0352F8101C07FA03F30B43C5
:1045A00042F8103C0135B542EFD14FF08043009AFC
:1045B000C3F80026019AC3F80426029AC3F810260D
:1045C000039AC3F81426002005B0BDE8F08308B5AF
:1045D0000020FDF729FD8068183820F0070010380A
:1045E0007047042809D0052803D1481E18BF0120B0
:1045F0007047431A5842584170470120704738B5F8
:1046000015460C4661B15AB1FFF7F5FD2544214628
:1046100011F8013B834203D1A942F9D1012038BDF1
:104620000020FCE738B50C4601231146224605461A
:10463000FFF79CFD00280FDB012221462846FFF7EB
:10464000DEFF38B92378012B14BF02230123237026
:10465000002038BD0323FAE70120FAE72DE9F743EC
:104660001D4606460F469046FFF7BEFD6C1E0444ED
:1046700040420440082C1AD83046FFF7BCFD2A46B9
:10468000814641466846FFF707FE621B49460DEB2F
:104690000500FFF70CFE23466A4639463046FFF711
:1046A0007AFD003818BF012003B0BDE8F0834FF059
:1046B000FF30F9E707B501238DF8042001AAFFF7C1
:1046C000CDFF03B05DF804FB81681839012221F0A9
:1046D0000701FFF7EFBF8268183A22F00702FFF7E1
:1046E000A1BF13B50C46C0B201A9FDF7F1F950B94D
:1046F00021460198FEF79CF904460198FFF735FD25
:10470000204602B010BD0124FAE713B541EA0211B8
:1047100004468DF80710FFF75EFF012301460DF1F7
:1047200007022046FFF79AFF02B010BD81681839D2
:1047300021F0070101220839FFF7BCBF70B50368FB
:10474000CD1A002D02DC6FF05F0070BD93F90060A0
:104750001C78002E0ADB5C1C04601B781360036865
:10476000C91A13688B42EED80020EEE704F07F04EC
:10477000013C032C2BD8DFE804F0020A1421012DA0
:10478000E1D05B781360036802330360E7E7022D32
:10479000D9DDB3F801305BBA9BB213600368033311
:1047A000F3E7032DCFDD9C785D78DB78240244EAC3
:1047B00005442343136003680433E6E7042DC2DD98
:1047C000D3F801301BBA136003680533DDE76FF0DF
:1047D0006300BAE770B404680E1B002E07DD26786C
:1047E0009E4208D10134046070BCFFF7A7BF6FF090
:1047F0005F0070BC70476FF06100FAE773B5022389
:10480000154601AA0446FFF7E5FF40B9019E21685D
:104810003246284600F0EEF823683344236002B0A5
:1048200070BD2DE9F84306460F461546984600240C
:104830004FF00C094146204601F01BF909FB0471B9
:10484000C2B2304601F02DF910B90134A542F1D1C0
:10485000BDE8F8831FB5069CCDE902345368019387
:1048600093680093D1E90132014601F0A4F804B045
:1048700010BD00230122C0E900238360704710B5FA
:10488000044668B1806830B161688900FEF7BCF900
:10489000A068FEF7A9F900230122C4E90023A36060
:1048A00010BD42F21073994270B504460D4602D90C
:1048B0006FF00F0070BD43688B4201D30020F9E711
:1048C00004212846FEF78AF906460028F0D0A168A0
:1048D00059B162689200FFF7DFFC6168A068890047
:1048E000FEF792F9A068FEF77FF9C4E90156E5E703
:1048F00038B504460D4619B9FFF7C1FF002038BD91
:1049000042688A4207D1806892000021FFF7CFFCFD
:1049100001232360F2E7FFF7B2FF29462046BDE8F6
:104920003840FFF7BEBF884270B505460E4609D035
:104930004968426841B92AB1012303609200806846
:10494000FFF7B5FC002070BD4C1E84B901343368FC
:104950002B60944212D921462846FFF7A2FF002877
:10496000F1D1B168A868A200FFF796FCEAE7B36846
:1049700053F82430002BE9D1013CE6E7A868121B6C
:104980009200002100EB8400FFF791FCE9E770B58D
:104990000C4601210546FFF784FF064670B96A6898
:1049A00001469200A868FFF782FC002CA968BABFF4
:1049B00064424FF0FF3201220C602A60304670BD25
:1049C0004368B1EB431F3FBF83684A0901F01F01F1
:1049D00053F822003ABFC84000F0010000207047A1
:1049E000D0E9011000F00CBE08B5FFF7F9FF073061
:1049F000C00808BD70B50E4612F0030118BF0121B2
:104A000001EB920105461446FFF772FF38B9D5E96C
:104A1000011023463246BDE8704000F03BBE70BD39
:104A200013460A46D0E9011000F059BEF8B5054614
:104A30000E464C0901F01F07FFF7D2FF6B683044A8
:104A4000B0EB431F05D81F2E0FD8002F41D10020F7
:104A50000AE010F01F0118BF012101EB5011284698
:104A6000FFF71FFF0028EED0F8BD6B686FF0030062
:104A70009A0060431946A142A2F104020CD8E21A3E
:104A80009C4288BF002213449B000022043B191D56
:104A9000DBD0A968CA50F9E7AE6806EB020C013911
:104AA0005CF800C046F802C0E5E7AB6853F8241094
:104AB00001FA07F043F82400A86850F824301343A3
:104AC00040F8243021FA06F201346B68A342ECD896
:104AD000BDE70022C7F12006F7E708B50A4641689E
:104AE00011B1806800F02DFE002008BD10B54268AD
:104AF0003AB94B6873B9B2B9181E18BF01204042C9
:104B000010BD836803EB820353F8043C002BF0D103
:104B1000013AEDE78C6804EB830454F8044C002C54
:104B2000E9D1013BE6E79A4210D811D3013A8368F4
:104B300053F822408B6853F822309C4206D802F189
:104B4000FF3205D3531CF2D10020D9E70120D7E76B
:104B50004FF0FF30D4E730B54368024623B94868C8
:104B600058B9002B36D12FE0906800EB830050F845
:104B7000040C0028F3D1013BF0E78C6804EB8005BE
:104B800055F8045C15BB0138EAE70D6802D20868E5
:104B9000404220E01068002803DD002D07DA0120E4
:104BA00019E0002D03DD10B14FF0FF3013E0013BA1
:104BB000916851F8235054F823108D420BD803F11B
:104BC000FF33E5D3591CF3D1002004E0002BDED0E5
:104BD0008342DAD9106830BD1FB50029BABF4942F7
:104BE0004FF0FF330123CDE90013012301A9029304
:104BF000CDF80CD0FFF7AFFF05B05DF804FB904295
:104C00002DE9F04105460F46144602D0884206D1F0
:104C1000274601232B607C683CB9002003E0FFF7A6
:104C200082FE0028F4D0BDE8F081BB6803EB84036A
:104C30004FEA840853F8043C0BB9013CECE72146E9
:104C40002846FFF72EFE0028EDD1AE68BA6823464D
:104C50003146304600F0AFFD06EB08030746002F53
:104C6000DBD06A68A24204F1010608D83146284622
:104C7000FFF717FE0028D6D1AB6803EB84031A6850
:104C8000D21943F8042B2CBF012700273446E6E74E
:104C90002DE9F041546805460E4690463CB97168CE
:104CA000A1420ED26FF009073846BDE8F081D8F86E
:104CB000083003EB840353F8043C002BEFD1013C94
:104CC000ECE72846FFF7EDFD07460028ECD17268B7
:104CD000944209D2B168A868121B920001EB8401CA
:104CE00000EB8400FFF7D8FA6A687068824207D93F
:104CF000AB68121A9200002103EB8000FFF7D7FA8D
:104D0000D8F80820B168A868234600F06AFD02467A
:104D100010B901232B60C7E7A9686B6801EB840118
:104D20001B1B084600F090FE0028F2D0BAE72DE9E0
:104D3000F84316680C6806FB04FC6646734381461C
:104D40000D4617461BD511462846FFF7CFFEB0F19A
:104D500000080DDB3A4629464846FFF799FF90B90F
:104D6000B8F1000F08BF0124C9F8004000200AE094
:104D70002A464846FFF78CFF28B96442F4E7FFF75C
:104D80003EFF0028F0D0BDE8F8830123FFF7CFBF36
:104D90004FF0FF33FFF7CBBF2DE9F3414F680546D6
:104DA000884616463FB1D8F8083003EB870353F81E
:104DB000043C3BB146B90021284602B0BDE8F041B1
:104DC000FFF7E5BD013FEDE7791C2846FFF769FDD8
:104DD000044670B941462846FFF7A5FD044640B990
:104DE000013E0096D5E90110D8F808203B4600F0B6
:104DF00015FD204602B0BDE8F0812DE9F04F9DB0D1
:104E000083460F461846002116460393FFF7E4FE3B
:104E1000002800F0878103230024012517930399BC
:104E2000169519AB3046CDE90A54CDE90C45CDE9CC
:104E30000E44CDE91054CDE91245CDE91444189340
:104E4000FFF754FEA04228DABBF1000F05D1E7B905
:104E5000002420461DB0BDE8F08F21465846FFF7DC
:104E600096FD04460028F2D00AA8FFF708FD0DA819
:104E7000FFF705FD10A8FFF702FD13A8FFF7FFFCE1
:104E80000C2119A8FDF7C0FEE3E731463846FFF7CD
:104E90004AFD04460028E7D1DAE731460AA8FFF7C1
:104EA00042FD04460028DFD103990DA8FFF73BFD22
:104EB00004460028D8D171680D95023110A80A95D2
:104EC000FFF7EFFC04460028CED1014610A8FFF7FB
:104ED0005EFD04460028C7D1716813A80231FFF7B0
:104EE000E0FC04460028BFD10DA8FFF779FD00F0D3
:104EF0001F001F2870D0C0F11F0319460AA8019394
:104F0000FFF794FD04460028AED101990DA8FFF7E4
:104F10008DFD04460028A7D10B9DDDF83880A5EB58
:104F2000080A4FEA4A1949460DA8FFF77FFD0446D3
:104F3000002899D14FEA8A0A0DA90AA8FFF70BFEAB
:104F400000284BDA49460DA8FFF7C7FD04460028A4
:104F50008AD108F1FF3305939B0005F1FF3A0693D0
:104F600005F1804508F18043023B013D9B00A5EB24
:104F700008050893AB000293059B9A453DD8BBF109
:104F8000000F0CD010A95846FFF7CDFC002840F0C8
:104F9000C580039A336812685343CBF80030002F62
:104FA0003FF462AF01990AA8FFF797FD002840F08F
:104FB000B58033680A930AA93846FFF7B4FC014666
:104FC000002840F0AD803846FFF706FE00287FF449
:104FD0004BAF01233B6047E701949DE7129A52F8DB
:104FE0000A300AA9013342F80A3008460DAAFFF731
:104FF000CFFE044600289FD036E70F9B069A049305
:105000001344DDF830900793049B59F82A109A58FE
:10501000129D4FEA8A08A8F104030993029B91426A
:105020001D4476D2A8F10400002359F80000FBF7D4
:1050300055F8002914BF4FF0FF330346BAF1010FB2
:105040002B6016BF09EB0803002353F8083C1993A3
:10505000A8F1040359F803301A9359F808301B9348
:105060002B68DDF8108001332B60089B98442B6877
:10507000013B2B60002113A8FFF789FC00284DD1CC
:10508000059B002B48D0D8F80020159B1A60079A82
:1050900012685A6013A92A680846FFF77DFE0028A7
:1050A0003CD116A913A8FFF756FD0028DFDC2A68BB
:1050B0000DA913A8FFF770FE80BB029B4FEAC3083F
:1050C000414613A8FFF7B2FC40BB0AA9084613AA41
:1050D000FFF75EFE014618BB0AA8FFF77DFD00281A
:1050E00012DA0DA913A8FFF71EFCB8B9414613A8A0
:1050F000FFF79CFC90B90AA913AA0846FFF745FEE2
:1051000060B92B68013B2B60029B0AF1FF3A043B1C
:1051100031E74FF0FF3391E7059AB6E70446A3E67F
:105120000C46A1E66FF00B0493E670B504460D46FD
:10513000104600211646FFF74FFD002824DB2A46C3
:10514000334621460020FFF758FE054638B1284671
:1051500070BD324621462046FFF717FE90B9002168
:105160002046FFF739FD0028F3DB31462046FFF7E4
:10517000F2FC0028EBDB324621462046FFF708FE12
:105180000028F2D00546E2E76FF00905DFE72DE9D8
:10519000F04FADF55B7D0E46099000211846059253
:1051A0001D46FFF719FD002806DC6FF003042046BA
:1051B0000DF55B7DBDE8F08FAB681B6813F0010354
:1051C0000893F2D005980021FFF706FD0028ECDBDC
:1051D0000598FFF705FCB0F5006FE6D82846FFF705
:1051E000FFFBB0F5006FE0D8A86800F0D3FB00210A
:1051F000012303904FF440721AA8CDE90B31CDE999
:105200000D13CDE90F11CDE91431CDE9113116910E
:105210001391FFF74CF80598FFF7E2FBB0F5287FF4
:1052200080F0DA80EF2800F2D9804F2800F2D88091
:105230001828089B28BF03230493049B09994FF067
:10524000010808FA03F71AA80023CDE91B33CDF8AB
:105250006880FFF768FB6B6803EB080949461AA8EA
:10526000FFF71FFB0446002840F0808149461DA837
:10527000FFF717FB0446002840F0788109FA08F18F
:105280000EA8FFF70EFB0446002840F06F8133683C
:10529000079301330AD1314614A8FFF744FB0446B3
:1052A000002840F06381CDF8508014AEE49B1BB120
:1052B0009B68002B40F0968001210BA8FFF767FB4D
:1052C0000446002840F0528169680BA88901FFF765
:1052D000ADFB0446002840F049810BA92A46084648
:1052E000FFF723FF0446002840F04081E49B23B1F0
:1052F0000C220BA91846FEF7CFFF29463046FFF7D0
:105300002AFC002872DB2A4631461DA8FFF70DFF54
:105310000446002840F02A8169681DA80131FFF782
:10532000C0FA0446002840F02181DDF84080039B4C
:105330001F98CDF800802A460BA9FFF78BFA0BA91E
:105340001AA8FFF7F0FA0446002840F00F81012365
:105350000AAACDE917330A931992039B1C98CDF83A
:1053600000802A4617A9FFF775FA049B012B42D14A
:10537000059B0026D3F804A00696B346B146069BCB
:105380003BB9BAF1000F00F0DA8020230AF1FF3AAE
:105390000693069B013B0693059B069A9B6853F870
:1053A0002A30D34013F001036ED1BBF1000FE6D0D9
:1053B000BBF1010F68D13A461AA911A8FFF731FADB
:1053C000002840F00281039B1C98CDF800802A46FB
:1053D00011A9FFF73FFAD2E706232DE705232BE7B4
:1053E000042329E7E4990C220BA884E731461DA881
:1053F000FFF799FA95E769684FEA57090C231AAA4B
:1054000003FB092601313046FFF74BFA002840F034
:10541000DC801DA93046FFF786FA002840F0D580D1
:10542000049BA24603F1FF3BCDF80080039BB068CC
:105430002A4631460AF1010AFFF70CFADA45F3D39E
:1054400009F10109B94593D2696806F10C0A0131E5
:105450005046FFF726FA002840F0B7803146504604
:10546000FFF761FA002840F0B080CDF80080706945
:10547000039B2A461DA9FFF7EDF909F101095646DC
:10548000E0E74FF0020B7AE7049A09F10109A2EB79
:10549000090293401E43049B4B45F2D14FF0000B91
:1054A00000233A461AA911A8FFF7BBF9002840F0DB
:1054B0008C80039B1C98CDF800802A4611A90BF123
:1054C000010BFFF7C7F9D945EAD833463A461AA97E
:1054D00011A8FFF7A6F90646002878D1039B1C986F
:1054E000CDF800802A4611A9FFF7B4F9B146DDF8DE
:1054F00020B044E700233A461AA911A8FFF791F912
:10550000002862D1039B1C98CDF800802A4611A97F
:105510007600FFF79FF937420FD001233A461AA9C8
:1055200011A8FFF77EF900284FD1039B1C98CDF8F6
:1055300000802A4611A9FFF78DF90AF1010ACA4530
:10554000D8D101230AAACDE917330A931992039BF4
:105550001C98CDF800802A4617A9FFF77BF9079B16
:10556000013320D009981AA9FFF7DDF97D080C2630
:10557000BD422ED31AA8FFF782F91DA8FFF77FF9C5
:105580000EA8FFF77CF914A8FFF779F911A8FFF727
:1055900076F9E49B1BB19B68002B7FF408AE0BA847
:1055A000FFF76DF903E6059B5B68002BDAD0059BDE
:1055B0009B681B68DB07D5D51AAA079B1A93294657
:1055C0001046FFF7E2FB0028CCD00446CEE70446A5
:1055D000CCE71AAB06FB0530FFF751F90135C7E7F9
:1055E000031E0BDB4FF000420020013020284FEA61
:1055F000520200D170471342F7D070470020FCE7F9
:1056000008B50346084641B1013939B953F82100BC
:10561000FFF7E6FFC0EB4110203008BD53F8212012
:10562000002AF3D10139F0E773B531B101F18043BC
:10563000013B00EB8303834201D202B070BD0268DC
:10564000019204220DEB02050024294615F8016B96
:10565000013A12F0FF0246EA0424F7D11D680195D1
:105660001546013211F8016BD2B2042A46EA05252B
:10567000F7D140F8045B43F80449DCE710B4044672
:105680008C42104604D00A46214610BC00F0F7B9FF
:1056900010BC70472DE9F0411C4613F0030318BFFE
:1056A000012303EB94038B4206460D46904613D824
:1056B00079B18F003A460021FEF7F9FD2CB1381B75
:1056C000224641463044FEF7E7FD29463046FFF7C3
:1056D000ABFF0020BDE8F0816FF00700FAE7B3EB05
:1056E000810F70B504464FEA8105104619D95A1B3F
:1056F00086180021FEF7DBFD30462B46C21800213C
:105700008B4210D1002070BD22F0030102F003068D
:105710006158F600F140C9B281B90132AA42F3D111
:10572000ECE71A46FAE721F0030001F003052058E0
:10573000ED00E84002F8010D0131E1E76FF00700EC
:10574000E1E753098B42F0B402F01F0401D809D1FC
:1057500024B18A00F0BC0021FEF7A9BD1F2A03D89E
:10576000F0BC70471F2A0AD900EB8302051F00EB2B
:105770008106B24216D1CB1A00228B4217D3002CDD
:10578000EED000EB81010022C4F120068142E7D077
:1057900051F8045C25FA04F3134341F8043D05FA7B
:1057A00006F2F3E752F8047B45F8047FE1E740F89E
:1057B00023200133E1E7F0B50024844620469C42D3
:1057C00000D1F0BD51F8245052F824702E182CBF8F
:1057D00001250025BF194CF8247045F10000013463
:1057E000EDE7F0B50024064620469C4200D1F0BD0E
:1057F00051F824C052F82470ACEB0005AF4294BFBE
:105800004FF0000E4FF0010EED1B46F8245084457A
:105810002CBF70460EF101000134E6E78B422DE902
:10582000F04728BF0B469646DE08089A0446C91A78
:1058300003F0070875460346B44600200CF1FF3C10
:10584000BCF1FF3F03F1200305F1200511D104EB6A
:1058500046140EEB46164FEA880C06EB880E2546DA
:10586000764540F081806444013980F08B80BDE84A
:10587000F08755F8207CA2FB079710EB090953F835
:10588000200C47F1000710EB090043F8200C55F8F5
:105890001C0C47F10007A2FB00093F1853F81C0C31
:1058A00049F10009C01943F81C0C55F8180C49F1CE
:1058B0000009A2FB000719EB000953F8180C47F187
:1058C000000710EB090043F8180C55F8140C47F1C9
:1058D0000007A2FB00093F1853F8140C49F1000916
:1058E000C01943F8140C55F8100C49F10009A2FB3B
:1058F000000719EB000953F8100C47F1000710EBF3
:10590000090043F8100C55F80C0C47F10007A2FBF6
:1059100000093F1853F80C0C49F10009C01943F86D
:105920000C0C55F8080C49F10009A2FB000719EB13
:10593000000953F8080C47F1000710EB090043F881
:10594000080C55F8040C47F10007A2FB000A17EBFE
:10595000000953F8047C4AF1000017EB090740F1F5
:10596000000043F8047C69E756F8043BA2FB0337C8
:10597000C318286847F10007C31845F8043B47F1EE
:1059800000006DE723681B1844F8043B2CBF01207E
:10599000002069E70168881C400000F00800084406
:1059A000032300FB01F2C2F10202013B02FB00F003
:1059B000F7D1404270472DE9F04F87B091460493EC
:1059C000109B0293DDE91183139D05934FEAC802F2
:1059D00083468A46043200212846FEF768FC08F117
:1059E00002032E4600240393444513D105EB8401A2
:1059F000029A51F8245023465846FFF7F2FE85EAF2
:105A000000030A46DBB25946204607B0BDE8F04F16
:105A100000F035B85AF82430D9F8002037680399D7
:105A2000009302FB0377059A049B574330464A468E
:105A3000FFF7F4FE3046DDE9022100974346FFF709
:105A4000EDFE04360134CFE730B50546104600229E
:105A50009A4200D130BD51F82240241A45F8224024
:105A600034BF012000200132F2E700207047704768
:105A70007047414048420843C043C00F7047F0B5EB
:105A800004395F420025013B854200D1F0BD52F848
:105A9000256051F8044F3E401C4034430C600135F2
:105AA000F2E72DE9F8430F46496805469146FEF7AF
:105AB000F8FE8046C8B92B683C68A86801330134F9
:105AC0005C4004EA49045C40013C2C60C9F10006DA
:105AD0004B46D7E9012146EA0906FFF7CFFDF61745
